S01300006769616E745F375F7365672E73726563CA
S11300000C9452000C946F000C946F000C946F00CD
S11300100C946F000C946F000C946F000C943203DA
S11300200C946F000C946F000C946F000C946F0090
S11300300C946F000C946F000C946F000C946F0080
S11300400C946F000C946F000C946F000C946F0070
S11300500C946F002D0132013901400147014E011A
S113006055015A016101650177017C0184018C010C
S113007094019C01A401AA01B201B701CA01D001F3
S1130080D901E201EB01F401FD0104020D021302A6
S113009027022C0233023A02410248024F02540260
S11300A05B025F0211241FBECFE5D8E0DEBFCDBFE7
S11300B010E0A0E6B0E0E8EEF7E002C005900D9293
S11300C0A236B107D9F720E0A2E6B0E001C01D9244
S11300D0A038B207E1F70E9466020C94F2030C9474
S11300E0000080917A0090917B0020917E003091F5
S11300F07F00821B930B909379008093780080910A
S11301007C0090917D002091740030917500821BD9
S1130110930B909375008093740080917400909178
S11301207500992394F48091740090917500CC9695
S11301309093750080937400809178009091790079
S1130140019790937900809378008091600090915A
S113015061002091640030916500821B930B9093A1
S11301606B0080936A0080916A0090916B009923E0
S113017094F480916A0090916B00CC9690936B00FC
S113018080936A0080917400909175000197909318
S113019075008093740080916600909167002091AF
S11301A0620030916300821B930B909371008093E3
S11301B070008091700090917100992394F4809163
S11301C0700090917100CC969093710080937000B0
S11301D080916A0090916B00019790936B008093DB
S11301E06A008091780090917900909377008093D1
S11301F076008091740090917500909373008093C1
S1130200720080916A0090916B0090936D008093CE
S11302106C008091700090917100909369008093BC
S1130220680008958130910509F456C01CF4892BA7
S113023049F008958230910509F4A1C0039709F4A7
S1130240FBC00895862F90E08A30910508F03DC1E7
S1130250FC01E65DFF4F0C94D80388B38E6788BB1E
S1130260C098089588B3806388BB88B3807B88BBBB
S1130270089588B38D6688BB88B38D7E88BB089546
S113028088B3896788BB88B3897F88BB089588B39E
S1130290836388BB88B3837B88BB089588B38B65ED
S11302A088BB88B38B7D88BB089588B38F6588BB72
S11302B0C598089588B3806788BB88B3807F88BB5E
S11302C0089588B38F6788BB089588B3836788BB14
S11302D088B3837F88BB0895862F90E08A30910588
S11302E008F0F3C0FC01EC5CFF4F0C94D80382B31C
S11302F08C6F82BBC798089582B3806682BB82B339
S1130300837682BBC798089582B3886D82BB82B31B
S11303108B7D82BBC79A089582B3806F82BB82B300
S1130320837F82BBC79A089582B3846682BB82B3FB
S1130330877682BBC79A089582B3846B82BB82B3EB
S1130340877B82BBC79A089582B38C6B82BB9698D5
S1130350C79A089582B3806E82BB82B3837E82BBC8
S1130360C798089582B38C6F82BBC79A089582B3ED
S1130370846E82BB82B3877E82BBC79A0895862F20
S113038090E08A30910508F0A0C0FC01E25CFF4FC8
S11303900C94D803DF9A85B3886F85BBAA98089517
S11303A0DF9885B3806C85BB85B3877C85BBAA98B1
S11303B00895DF9A85B3806B85BB85B3877B85BB46
S11303C0AA9A0895DF9A85B3806E85BB85B3877E2C
S11303D085BBAA9A0895DF9885B38C6C85BB85B3D9
S11303E08F7C85BBAA9A0895DF9A85B3886685BBFE
S11303F085B38F7685BBAA9A0895DF9A85B38867FB
S113040085BBAF98AA9A0895DF9A85B3806C85BBA3
S113041085B3877C85BBAA980895DF9A85B3886FD6
S113042085BBAA9A0895DF9A85B3886C85BB85B38A
S11304308F7C85BBAA9A0895862F90E08A30910517
S113044008F043C0FC01E85BFF4F0C94D8038BB366
S11304508F638BBBDE9808958BB382618BBB8BB3A8
S113046086788BBB08958BB38B658BBB8BB38B7DED
S11304708BBB08958BB38F648BBB8BB38F7C8BBB8F
S113048008958BB386668BBB8BB3867E8BBB089536
S11304908BB38D668BBB8BB38D7E8BBB08958BB377
S11304A08D678BBBD99808958BB387608BBB8BB357
S11304B087788BBB08958BB38F678BBB08958BB301
S11304C087668BBB8BB3877E8BBB08958FEF8ABB0C
S11304D087BB84B38C6F84BB81B38C6F81BB8CE08E
S11304E090E00E94BD030E94710080916800909189
S11304F06900CAE0D0E0BE010E94C40382E090E03B
S11305000E9412018091680090916900BE010E94CE
S1130510C403682F83E090E00E9412018091680078
S113052090916900BE010E94C40380E090E00E94A3
S113053012018091680090916900BE010E94C40379
S1130540682F81E090E00E94120160E080E090E07A
S11305500E9412012FED83E994E0215080409040E5
S1130560E1F700C0000061E080E090E00E94120129
S11305702FED83E994E0215080409040E1F700C0E2
S1130580000062E080E090E00E9412012FED83E918
S113059094E0215080409040E1F700C0000063E007
S11305A080E090E00E9412012FED83E994E0215055
S11305B080409040E1F700C0000064E080E090E0FB
S11305C00E9412012FED83E994E021508040904075
S11305D0E1F700C0000065E080E090E00E941201B5
S11305E02FED83E994E0215080409040E1F700C072
S11305F0000066E080E090E00E9412012FED83E9A4
S113060094E0215080409040E1F700C0000067E092
S113061080E090E00E9412012FED83E994E02150E4
S113062080409040E1F700C0000068E080E090E086
S11306300E9412012FED83E994E021508040904004
S1130640E1F700C0000069E080E090E00E94120140
S11306502FED83E994E0215080409040E1F700C001
S1130660000073CF1F920F920FB60F9211242F9395
S11306703F934F935F936F937F938F939F93AF9326
S1130680BF93CF93DF93EF93FF9380916800909192
S113069069000197909369008093680080916800D5
S11306A090916900CAE0D0E0BE010E94C40382E0D8
S11306B090E00E9412018091680090916900BE014F
S11306C00E94C403682F83E090E00E94120180918D
S11306D06800909169001816190634F18CE390E0D3
S11306E0909369008093680080916C0090916D00F4
S11306F0019790936D0080936C00809168009091B5
S11307006900BE010E94C40380E090E00E941201CF
S11307108091680090916900BE010E94C403682F13
S113072081E090E00E94120180916C0090916D0034
S1130730181619067CF08CE390E090936D0080937A
S11307406C008091720090917300019790937300F4
S113075080937200FF91EF91DF91CF91BF91AF91A0
S11307609F918F917F916F915F914F913F912F91C5
S11307700F900FBE0F901F90189590BD89B988E116
S11307808AB986E880BD089597FB072E16F4009475
S113079007D077FD09D00E94DE0307FC05D03EF4A4
S11307A0909581959F4F0895709561957F4F089519
S11307B0EE0FFF1F0590F491E02D0994AA1BBB1BBB
S11307C051E107C0AA1FBB1FA617B70710F0A61B4D
S11307D0B70B881F991F5A95A9F780959095BC016E
S10B07E0CD010895F894FFCF48
S10507E81E00ED
S9030000FC
